:020000040800F2
:1000000000900020DD4B00082D4C00082D4C00080E
:1000100000000000000000000000000000000000E0
:100020000000000000000000000000002D4C00084F
:1000300000000000000000002D4C0008E334000820
:100040002D4C00082D4C00082D4C00082D4C0008AC
:100050002D4C0008753600088536000895360008D6
:100060002D4C00082D4C00082D4C00082D4C00088C
:100070002D4C0008193100083131000839310008D1
:1000800051310008693100088131000899310008B8
:10009000B1310008C9310008E13100082D4C0008D9
:1000A0002D4C00082D4C00082D4C0008293F00085D
:0C00B000413F00085D3F00082D4C000897
:1000BC0002B4714649084900095C49008E4402BCEF
:1000CC007047C04603B47146490840004900095EB8
:1000DC0049008E4403BC7047002243088B4274D302
:1000EC0003098B425FD3030A8B4244D3030B8B422D
:1000FC0028D3030C8B420DD3FF22090212BA030C36
:10010C008B4202D31212090265D0030B8B4219D316
:10011C0000E0090AC30B8B4201D3CB03C01A524136
:10012C00830B8B4201D38B03C01A5241430B8B427E
:10013C0001D34B03C01A5241030B8B4201D30B0367
:10014C00C01A5241C30A8B4201D3CB02C01A52418E
:10015C00830A8B4201D38B02C01A5241430A8B4251
:10016C0001D34B02C01A5241030A8B4201D30B023A
:10017C00C01A5241CDD2C3098B4201D3CB01C01A54
:10018C00524183098B4201D38B01C01A524143095E
:10019C008B4201D34B01C01A524103098B4201D34C
:1001AC000B01C01A5241C3088B4201D3CB00C01AB9
:1001BC00524183088B4201D38B00C01A5241430831
:1001CC008B4201D34B00C01A5241411A00D2014656
:1001DC00524110467047FFE701B5002000F0F0F8DF
:1001EC0002BDC0460029F7D076E7704703460B43A3
:1001FC007FD4002243088B4274D303098B425FD314
:10020C00030A8B4244D3030B8B4228D3030C8B423F
:10021C000DD3FF22090212BA030C8B4202D3121225
:10022C00090265D0030B8B4219D300E0090AC30BFA
:10023C008B4201D3CB03C01A5241830B8B4201D3A7
:10024C008B03C01A5241430B8B4201D34B03C01A90
:10025C005241030B8B4201D30B03C01A5241C30A08
:10026C008B4201D3CB02C01A5241830A8B4201D379
:10027C008B02C01A5241430A8B4201D34B02C01A63
:10028C005241030A8B4201D30B02C01A5241CDD208
:10029C00C3098B4201D3CB01C01A524183098B4253
:1002AC0001D38B01C01A524143098B4201D34B013C
:1002BC00C01A524103098B4201D30B01C01A52419F
:1002CC00C3088B4201D3CB00C01A524183088B4226
:1002DC0001D38B00C01A524143088B4201D34B000F
:1002EC00C01A5241411A00D2014652411046704781
:1002FC005DE0CA0F00D04942031000D34042534086
:10030C0000229C4603098B422DD3030A8B4212D345
:10031C00FC22890112BA030A8B420CD38901921177
:10032C008B4208D3890192118B4204D389013AD0B4
:10033C00921100E08909C3098B4201D3CB01C01A89
:10034C00524183098B4201D38B01C01A524143099C
:10035C008B4201D34B01C01A524103098B4201D38A
:10036C000B01C01A5241C3088B4201D3CB00C01AF7
:10037C00524183088B4201D38B00C01A5241D9D20F
:10038C0043088B4201D34B00C01A5241411A00D290
:10039C000146634652415B10104601D34042002B8C
:1003AC0000D54942704763465B1000D3404201B50B
:1003BC00002000F005F802BD0029F8D016E77047C0
:1003CC007047C046002B11D1002A0FD1002900D153
:1003DC00002802D00021C943080007B4024802A13A
:1003EC004018029003BDC046D9FFFFFF03B4684616
:1003FC0001B5029805F0D8FD019B9E4602B00CBCDD
:10040C007047C0461C2101231B04984201D3000CE9
:10041C0010391B0A984201D3000A08391B0998426B
:10042C0001D30009043902A2105C40187047C04681
:10043C0004030202010101010000000000000000A1
:10044C0010B5002903D1FFF7DDFF203002E00800D2
:10045C00FFF7D8FF10BDC04610B5064C2378002B13
:10046C0007D1054B002B02D0044800E000BF01234C
:10047C00237010BD6C0100200000000054610008C6
:10048C00044B10B5002B03D00349044800E000BF17
:10049C0010BDC0460000000070010020546100082F
:1004AC0010B504210A4A0B4800F0AEF90521084AA0
:1004BC00094800F0A9F90721054A084800F0A4F9F9
:1004CC00E12106220648490204F0C0FA10BDC046DC
:1004DC00DC0500008E0100208B010020880100202B
:1004EC002C04002010B5054800F0C8F8044800F0B2
:1004FC00C5F8044800F0C2F810BDC0468E010020BB
:10050C008B010020880100207FB5174C200004F0DF
:10051C0008F9002821DD6A460F230A21200004F087
:10052C0029FB00256B46114E1D543100684604F022
:10053C00D3FE04F056FC31000400280004F0CCFE7D
:10054C0004F04FFC0100022C08D0032C0AD0084800
:10055C00012C04D0142004F00DFC7FBD054800F0E4
:10056C00BFF8F7E70448FAE72C0400206C61000898
:10057C008E0100208B0100208801002070B52E4CCC
:10058C002E4E23782E4D5BB2002B17DA00233360EE
:10059C0023782A7801335BB22370237829485BB225
:1005AC00934203DA23785BB20B2B1CDD3368264AAB
:1005BC000433934236D902F07FFC39E023782A7851
:1005CC005BB29342E4DA2378204A5BB2DB00D318A7
:1005DC005B78012BDCD1237800215BB2DB00985CCB
:1005EC0004F088FBD4E72378184D5BB2DB00EB18E2
:1005FC005968002202F062FD23785BB2DB00EB1835
:10060C005A6833689B18336023785BB2DB00EB18B5
:10061C005978012905D123785BB2DB00585D04F0D1
:10062C0069FB70BD33680A490022C91A02F046FD05
:10063C00FF232370F5E7C046000000209401002042
:10064C00980100209C0100201F4E00005002002049
:10065C00204E0000012A02D1016000207047022ABE
:10066C0005D0032AF9D0002AF7D10260F5E70B6810
:10067C000360F2E710B50368984710BD074A13787A
:10068C000B2B08D8591C1170054A0370DB00D218CB
:10069C00044B53607047FF230370FBE79801002065
:1006AC0050020020DC05000010B504780B2C13D888
:1006BC000122882382569B1A9B008B4208DC022263
:1006CC00962382569B009B1A9B008B4200DD0B00ED
:1006DC00024AE4001219536010BDC04650020020BB
:1006EC00882313B59B000400994216DAB420B42970
:1006FC0002DCC843C017084001228823A2560221FD
:10070C009B1A962261569200521A92000021009276
:10071C009B00B42204F043FA01002000FFF7C4FF51
:10072C0013BD0000F0B50400007887B00D00160072
:10073C0001930B2855D80121280004F073FA882165
:10074C0003222378284F8900891BDB00DD55CB174A
:10075C0013405B1896219B106370019B0901C91A09
:10076C00CB1713405B189B10A37020000C99FFF75C
:10077C00B7FF00231D4AD15C01292DD00833602B13
:10078C00F9D11B4E02AD300002F06AFC1949FFF79B
:10079C00A3FC0100300002F0B6FB00223000164929
:1007AC0002F08CFC00236B60144B29000293144B59
:1007BC003000EB60134BAB6002F06EFDAB68002BAE
:1007CC0003D003222900280098473000002102F0B2
:1007DC0067FB300002F03EFB01222078C300FB18BF
:1007EC005A7007B0F0BDC0465002002051020020E4
:1007FC009C01002040420F00204E0000890500089B
:10080C00810600086106000813B59623882400921F
:10081C001B01A200FFF786FF16BD000010B50248B1
:10082C00024902F0EDFC10BD9C01002000140040B8
:10083C0010B5024802F0B2FB10BDC0469C0100206E
:10084C007047000070B5104B05001978002901D1D4
:10085C00012070BDFA208000FFF73EFC0B4C01001C
:10086C002068FFF739FC00F08DF8041EF0D1032D41
:10087C00EED8020001202900404200F03DF8044B64
:10088C0020001D60E5E7C04601000020400000206C
:10089C00040000208023084A5B00116810B50B434C
:1008AC0000201360FFF7CEFF041E03D1FFF7C8FF33
:1008BC00200010BD0124FBE700200240034A044B3A
:1008CC0011681B785B1813607047C046B00200209B
:1008DC0001000020014B18687047C046B002002090
:1008EC00034A044913680B40034313607047C04626
:1008FC0000000140FFF9FFFF10B5FF2403220B009D
:10090C0021000240D20091409B012340C9439340F7
:10091C0000280ADBC0240B4A800880008018A40041
:10092C0002590A401343035110BD0F2210400838DE
:10093C00054A800880008018C26911401943C161C2
:10094C00F2E7C04600E100E000ED00E0002805DB26
:10095C001F2318401E3B8340014A13607047C0465A
:10096C0000E100E0002809DB1F2318401E3B8340F8
:10097C00034AD367BFF34F8FBFF36F8F7047C046E7
:10098C0004E100E08022431E5204012093420DD268
:10099C00C021074A07485360036A09061B021B0A59
:1009AC000B43036200200723906013607047C0461E
:1009BC0010E000E000ED00E0002807DB1F23C02260
:1009CC0018401E3B8340024952008B507047C04672
:1009DC0000E100E0704710B5FFF7FCFF10BD704759
:1009EC0010B5041E01D1012010BD437FDAB2002BDB
:1009FC0002D10277FFF7F3FF022363772379002BF1
:100A0C001CD118212368124A5A619A688A439A6049
:100A1C0062792368002A19D1013A60211A619A6817
:100A2C0000208A4361690A4380219A609A688A434C
:100A3C00A1690A439A6001236377D5E72000E26835
:100A4C00A16800F007F80028E2D0CCE72269E4E7BF
:100A5C00B71DC10430B5012504001E23280029420E
:100A6C0002D130BD013B21D30800D8402842F9D037
:100A7C00102A17D0102A07D8002A0AD00120082AD9
:100A8C00EFD10F2BEDD804E00120182AE9D1062B69
:100A9C00E7D820684161182183688B431343836036
:100AAC000020DEE70120072BF3D9DAE70120102A1A
:100ABC00E0D1D6E710B504000120002C08D00223A9
:100ACC002000237102F0A6FC0020206160712071CF
:100ADC0010BD030030B50120002B0AD00F300140AF
:100AEC000F3805008D401C682268AA4322601871DB
:100AFC00002030BDF0B5002808D0841DE37F411DD7
:100B0C00022B05D00423C3630023CB770120F0BD57
:100B1C000E250268466C1368AB4313603368104DA6
:100B2C002B403360012316689E431660026C1B3306
:100B3C001A401B3B93400B4E77683B437360C26C6F
:100B4C00836C5A60036D002B05D01A682A401A601A
:100B5C00436D826D5A6001230020E377C877D6E796
:100B6C00FFFEFFFF00000240F8B5811DCB7F022B7A
:100B7C0003D00423C3630120F8BD0E2402681C2794
:100B8C001368456CA3431360012314689C431460E1
:100B9C002A68104C22402A60026C0F4D3A40934058
:100BAC006E6833436B60C26C836C5A60036D002BB0
:100BBC0005D01A6822401A60436D826D5A60012379
:100BCC000022CB77431DDA77836B934200D0984792
:100BDC000020D1E7FFFEFFFF0000024070B5084D7A
:100BEC000400EB68184202D0E86002F035FD2B6976
:100BFC00234203D020002C6102F032FD70BDC046B0
:100C0C00001802408023034A5B0011680B431360F9
:100C1C007047C0460070004010B5114C1149236854
:100C2C0002000B4003432360802300209B009A4268
:100C3C000ED10D4B0D49186806235843FFF74CFA9B
:100C4C008022431CD200616908001040114200D17F
:100C5C0010BD002B01D0013BF5E70320F8E7C0469F
:100C6C0000700040FFF9FFFF4000002040420F00E1
:100C7C00F0B5040085B0002802D1012005B0F0BD0C
:100C8C000368DB0710D423689B075CD423681B071D
:100C9C0000D5C1E023685B0700D5F2E0E369002BC7
:100CAC0000D079E10020E9E73822AF4DAB68134062
:100CBC00EA68102B09D1D3439B0708D12B689B03FF
:100CCC00E1D56368002BDED1D7E7082BF6D0802264
:100CDC0063685202934211D12A6813432B60FFF7C9
:100CEC00F9FD80270600BF022B683B42CBD1FFF7F2
:100CFC00F1FD801B6428F7D90320BFE7A021C902AE
:100D0C008B4208D180232968DB020B432B602B68B4
:100D1C001A432A60E3E72A6894490A402A602A6841
:100D2C0093490A402A60002BD9D1FFF7D3FD8027C5
:100D3C000600BF022B683B42A5D0FFF7CBFD801B02
:100D4C006428F7D9D8E73822874DAB681340EA6896
:100D5C00102B28D103210A40022A26D12A685205D9
:100D6C0003D5E268002A00D187E769686269814887
:100D7C00120201400A436A60002B0CD12B687E4A98
:100D8C007E491340226913432B602B687C4A9B04D9
:100D9C005B0FDA400A607B4B1868FFF753FD0028A5
:100DAC0000D173E769E7002BD8D0E368002B20D083
:100DBC002B68714A802713402269FF0013432B6074
:100DCC0080232A685B0013432B60FFF783FD06002A
:100DDC002B683B4207D06A68636966491B020A406C
:100DEC0013436B6052E7FFF775FD801B0228EFD9A8
:100DFC0082E72B68644A802713402B60FFF76AFD5B
:100E0C000600FF002B683B4200D13FE7FFF762FD75
:100E1C00801B0228F6D96FE73822534DAB6813407C
:100E2C00182B08D12B6E9B0700D433E7A369002B3A
:100E3C0000D02FE721E7A2690123002A10D02A6EE7
:100E4C00022713432B66FFF745FD06002B6E3B4232
:100E5C0000D01FE7FFF73EFD801B0228F6D94BE7B9
:100E6C002A6E02279A432A66FFF734FD06002B6E82
:100E7C003B4200D10EE7FFF72DFD801B0228F6D96F
:100E8C003AE73822384DAB681340202B08D1EB6D74
:100E9C009B0700D402E7A368002B00D0FEE6ECE62B
:100EAC0080220021EB6B52050091134208D1EB6BB1
:100EBC001343EB63EB6B13400393039B01230093EE
:100ECC008027324E7F0033683B4215D0A368012B3C
:100EDC0022D1EA6D1343EB65FFF7FCFC02270600F9
:100EEC00EB6D3B4238D0009B012B00D0D6E6EB6B70
:100EFC00274A1340EB63D1E633683B433360FFF77B
:100F0C00E9FC019033683B42E0D1FFF7E3FC019B25
:100F1C00C01A0228F6D9EFE6EA6D052B05D1013B84
:100F2C001343EB65EA6D0123D4E701218A43EA659B
:100F3C00EA6D03318A43EA65002BCDD1FFF7CAFC79
:100F4C0002270600EB6D3B42CDD0FFF7C3FC114BE3
:100F5C00801B9842F6D9CFE6FFF7BCFC0D4B801BEB
:100F6C009842BDD9C8E6C04600100240FFFFFEFF04
:100F7C00FFFFFBFFFF80FFFFFFC7FFFF40000020CC
:100F8C000024F40004000020FFFEFFFF007000406E
:100F9C00FFFFFFEF881300003821434DAA680A4079
:100FAC00102A53D0414A022B3AD12B688027134088
:100FBC002B60FFF78FFC0600BF042B683B4229D146
:100FCC00616A236AEA680B43394980260A40134355
:100FDC00E26AB6041343226B1343626B1343A26A97
:100FEC0012021343EB6080232A685B0413432B60CB
:100FFC008023EA685B051343EB60FFF76BFC04008E
:10100C002B68334200D04DE6FFF764FC001B02282E
:10101C00F6D971E6FFF75EFC801B0228CDD96BE692
:10102C002B68802613402B60FFF754FC0400B60499
:10103C002B68334204D1EB681E4A1340EB6031E657
:10104C00FFF748FC001B0228F2D955E6012B00D112
:10105C0013E60322E868216A02408A4200D00CE6BB
:10106C007022616A02408A4200D006E6FE21A26A22
:10107C00C90101401202914200D0FEE5F822E16A5A
:10108C00920302408A4200D0F7E5E022216B120560
:10109C0002408A4200D0F0E5636B400F4007C01A53
:1010AC00431E9841C0B2E9E500100240FFFFFFFE6D
:1010BC008C80C111FCFFFEEE382370B51D4CA2686C
:1010CC001A4205D123681C489B045B0FD84070BDA5
:1010DC00A2681A40082A27D0A2681A40102A17D1F1
:1010EC00E368E168DB43E5684906490F6F322D0A76
:1010FC00013115409B0709D11048FEF7EDFFE1685F
:10110C006843490F0131FEF7E7FFE0E70A48F4E7CF
:10111C00A2681A40202A09D0A26800201340182B7C
:10112C00D5D1FA20C001D2E70448D0E780200002D4
:10113C00CDE7C046001002400024F40000127A00F3
:10114C00F7B504000D00002801D10120FEBD0727D2
:10115C00484E33683B408B422AD3226893073BD4DA
:10116C00D20748D4072733683B40AB420AD93368CF
:10117C00BB432B433360FFF7ADFB019033683B401F
:10118C00AB4268D123683C4D5B076CD4FFF794FFEE
:10119C00AB683A491B051B0F9B005B581F210B408A
:1011AC00D840374A374B10601868FFF74BFBCDE738
:1011BC003368BB430B433360FFF78CFB0190336800
:1011CC003B40AB42C9D0FFF785FB019BC01A2E4BAD
:1011DC009842F4D90320B9E72749530704D5E023F3
:1011EC008868DB0103438B608B6828480340A06848
:1011FC0003438B60B4E760681F4F032829D8FEF7C0
:10120C0057FF20021C243B689B039ED50722BB681A
:10121C0093430343BB60FFF75DFB01903823BA682F
:10122C001A406368DB009A429CD0FFF753FB019B8A
:10123C00C01A154B9842F1D9CCE73B689B01E5D419
:10124C0083E73B685B05E1D47FE73B6E9B07DDD40E
:10125C007BE7FB6DFAE7FFF73DFB019BC01A0A4BDE
:10126C0098428BD9B6E7AB68094A1340E26813433E
:10127C00AB608BE7002002400010024000630008C6
:10128C00400000200400002088130000FFF0FFFF46
:10129C00FF8FFFFF064B07499B68074A5B045B0FF8
:1012AC009B005B581F2110680B40D8407047C0460C
:1012BC0000100240E062000840000020072230B518
:1012CC00F025094B02609C682D01144044609C6819
:1012DC002C408460E0249B68E4012340C360034BF2
:1012EC001B6813400B6030BD001002400020024010
:1012FC0001000300012010B53D310C78E2B28442AC
:10130C001CD1001808701B680E498B4209D0802133
:10131C00C9058B4205D00C498B4202D00B498B423C
:10132C000DD19A680A490A40062A06D007398A4222
:10133C0003D0012219680A431A60002010BD1968F5
:10134C00F9E7C046002C0140000400400040014079
:10135C0007000100020030B502243C32157803006E
:10136C002000012D08D018003D3004701B68596115
:10137C00012303700020107030BD704770470000CF
:10138C000222036870B5DD681E69040016420DD098
:10139C0015420BD0053A1A61043202779B699B0700
:1013AC0000D17CE001F0D2FF0023237704231E42FE
:1013BC0012D01D4210D00522236852421A61073206
:1013CC0022779A69C0239B0020001A4200D16CE05E
:1013DC0001F0BCFF0023237708231E420FD01D42CF
:1013EC000DD00922236852421A610D322277DB6933
:1013FC0020009B075FD001F0A9FF00232377102367
:10140C001E4211D01D420FD01122236852421A6184
:10141C0019322277DA69C0239B0020001A4250D07F
:10142C0001F094FF0023237701231E4208D01D42B4
:10143C0006D002222368524220001A6101F05BFFA1
:10144C0082239B011E4207D02B0605D52368204A18
:10145C0020001A6100F01DFAF30507D52B0605D5FF
:10146C0023681C4A20001A6100F014FA40231E4223
:10147C0008D01D4206D041222368524220001A6136
:10148C00FFF77CFF20231E4208D01D4206D02122EC
:10149C002368524220001A6100F0FAF970BD01F085
:1014AC0051FF2000FFF769FF7EE701F04BFF2000A2
:1014BC00FFF763FF8EE701F045FF2000FFF75DFFAC
:1014CC009BE701F03FFF2000FFF757FFAAE7C0465C
:1014DC007FDFFFFFFFFEFFFF10B51F4C0368A0422C
:1014EC0006D08022D205904202D01C4A904208D1EC
:1014FC00702293434A681343194A1A40CB6813432A
:10150C000BE0184A9042F7D0174A9042F4D0174A91
:10151C009042F1D0164A9042EED0802293434A6911
:10152C00134303608B68C3620B688362A04208D0CC
:10153C000D4B984205D00D4B984202D00C4B984263
:10154C0001D10B690363012242610369134202D08A
:10155C0003699343036110BD002C0140000400405B
:10156C00FFFCFFFF00200040004001400044014010
:10157C000048014070B504000120002C23D0250048
:10158C003D352B78DAB2002B05D123003C332000FB
:10159C001A7002F0BDFB02232B702068211DFFF78F
:1015AC009BFF2200012300204832137047340A3A73
:1015BC00137053709370D370137153719371D37103
:1015CC00137223702B7070BD1F2310B501241940AA
:1015DC008C408A40036AA3430362036A1A43026283
:1015EC0010BD0000020010B508291CD006D8002937
:1015FC000BD0042914D01300433308E00C2915D068
:10160C001029F8D10300423301E003003E331B786C
:10161C00013B581E8341DBB20120002B09D010BDC9
:10162C0003003F33F3E703004033F0E7030041339B
:10163C00EDE70223082936D006D800290BD004295F
:10164C002ED01000433008E00C292FD01029F8D1EF
:10165C001000423001E010003E300370146801228B
:10166C002000FFF7B1FF1A4A944208D0194B9C4254
:10167C0005D0194B9C4202D0184B9C4219D18023A7
:10168C00616C1B020B436364944202D0114B9C426D
:10169C0019D1A368124A1340062B10D10020BEE7C3
:1016AC0010003F30D9E710004030D6E71000413031
:1016BC00D3E78023DB059C42EBD00A4BE7E7802283
:1016CC0052029342EAD00123226813432360E5E7D8
:1016DC00002C014000400140004401400048014002
:1016EC00070001000004004010B5FFF77BFF10BDA0
:1016FC00030010B5082927D006D800290BD00429DF
:10170C001FD01A00433224E00C2920D01029F8D124
:10171C00020042321DE002003E3210780632C0B2A6
:10172C001278D2B2012852D1012A41D101320829B2
:10173C0042D013D8002918D004293AD018004330CD
:10174C003FE002003F32E8E702004032E5E70200EA
:10175C00413210781A00C0B24732E1E70C292ED082
:10176C001029EBD1180042302BE018003E300270EB
:10177C0082711C6801222000FFF726FF154B9C424A
:10178C0009D08023DB059C4205D0134B9C4202D030
:10179C00124B9C4207D1A368114A1340062B06D06A
:1017AC00073A934203D0012322681343236000209D
:1017BC0010BD18003F30DAE718004030D7E71800AA
:1017CC00413002701A00022047321070D1E701201C
:1017DC00EEE7C046002C01400004004000400140F0
:1017EC00070001000F2310B5042419408C408A40D7
:1017FC00036AA3430362036A1A43026210BD00002A
:10180C000300020010B500292BD1443201201478BA
:10181C00844225D1022010701C6804222000FFF79E
:10182C00E1FF8023626C1B0213436364124B9C42E6
:10183C0009D08023DB059C4205D0104B9C4202D082
:10184C000F4B9C4207D1A3680E4A1340062B06D0BF
:10185C00073A934203D001232268134323600020EC
:10186C0010BD042901D14532D0E7082901D14632F7
:10187C00CCE74732CAE7C046002C014000040040C8
:10188C00004001400700010010B5FFF7B9FF10BD83
:10189C00704770477047000030B5EFF31084012299
:1018AC0082F310880168134D0B682B400B6084F396
:1018BC001088EFF3108182F3108802680E4C936845
:1018CC002340936081F31088C36E012B0AD1EFF390
:1018DC00108183F31088102402681368A3431360EB
:1018EC0081F31088030020228C331A600023C36616
:1018FC00436730BDDFFEFFFFFEFFFFEF30B5EFF3B8
:10190C001084012282F31088802501680B68AB4398
:10191C000B6084F31088EFF3108182F3108840235E
:10192C00026810680343136081F3108830BD030014
:10193C0088331B6810B5212B06D102005632138850
:10194C00002B02D1FFF7DAFF10BD036D01681C7884
:10195C0001338C6203651388013B9BB21380F3E760
:10196C00030088331B6810B5212B06D101005631BA
:10197C000B88002B02D1FFF7C1FF10BD026D04686C
:10198C0013880232DB05DB0DA36202650B88013B79
:10199C009BB20B80F1E70000030088331B6870B525
:1019AC00212B21D10300010080246A331B8856317E
:1019BC00002B19D00A88002A17D1EFF310840132BA
:1019CC0082F310880168114D8B682B408B6084F377
:1019DC001088EFF3108182F310884023026810689E
:1019EC000343136081F3108870BD0568EA692242D5
:1019FC0008D0026D16780132AE6202650A88013A8F
:101A0C0092B20A80013B9BB2D2E7C046FFFF7FFF38
:101A1C00030088331B6870B5212B21D10300010012
:101A2C0080246A331B885631002B19D00A88002A6F
:101A3C0017D1EFF31084013282F310880168124D34
:101A4C008B682B408B6084F31088EFF3108182F34A
:101A5C0010884023026810680343136081F31088D8
:101A6C0070BD0668F26922420AD0056D2A880235DB
:101A7C00D205D20DB26205650A88013A92B20A808B
:101A8C00013B9BB2D0E7C046FFFF7FFF70470000D1
:101A9C0030B5050088352C6803000220202C38D185
:101AAC000138002935D0002A33D080209C684001B1
:101ABC00844205D11869002802D10130014228D195
:101ACC001965190054310A804A801A00002190329D
:101ADC001160212280212A608022586E92054901D2
:101AEC00904217D1154A8C4204D11969144A002925
:101AFC0000D0124A9A67EFF31081012282F310880A
:101B0C001A68802390681B040343936081F3108848
:101B1C00002030BD0B4A8C4204D119690A4A0029B5
:101B2C0000D0084A9A67EFF31081012282F31088E3
:101B3C001A688023106803431360E7E7A5190008AF
:101B4C001D1A00083B1900086D190008806A002353
:101B5C00020010B55E321380083A138002F0BCF913
:101B6C0010BD7047F7B50168C14DCB6904000A6818
:101B7C0088682B4210D120252B4200D19BE0802677
:101B8C00760515400640354300D194E0636F200084
:101B9C00002B00D085E085E0B64D05400095B64D94
:101BAC00009E1540354300D185E025000126903577
:101BBC00334205D0D70503D50E622F683E432E6005
:101BCC00022633420CD0C7070AD527000E62903785
:101BDC003E680197B446042667463E43019F3E602B
:101BEC00042633420CD0C7070AD527000E62903763
:101BFC003E680197B446022667463E43019F3E600D
:101C0C000826B446334209D02027009E174037439C
:101C1C0004D066460E622F683E432E608026360145
:101C2C00334206D0570104D50E6220212E68314371
:101C3C0029602968002935D020210B420AD0802345
:101C4C005B0511400340194304D0636F002B01D096
:101C5C002000984722682B684027966828223E402F
:101C6C00134020001E4322D0FFF716FE23689B680A
:101C7C003B4218D0EFF31081012383F31088250029
:101C8C0004CD9368BB43936081F31088E86F002800
:101C9C0009D07A4B8363FEF767FF002802D0E86F08
:101CAC00836B9847F7BD200002F016F9FAE702F0B3
:101CBC0013F92E60F6E7E56E012D00D09FE010269B
:101CCC00334200D19BE0324200D198E00E62896829
:101CDC0040230A001A40194257D0211DCA6F1068C0
:101CEC00426892B2002ADDD027005C373F889742C9
:101CFC00D8D927005E373A800268202084461040ED
:101D0C0000906046024232D1EFF3108785F31088C1
:101D1C0020685B4E02683240026087F31088EFF354
:101D2C00108785F3108820688268AA43826087F345
:101D3C001088EFF3108785F31088206882689A4327
:101D4C00826087F31088230062468C331A60009BF4
:101D5C00E366EFF3108085F3108822680F35136863
:101D6C00AB43136080F31088C86FFEF7C3FE0223E9
:101D7C002200236723005C325E331B881188C91A4A
:101D8C0089B22000FFF7EDFE8CE721005E310B8855
:101D9C0009889BB2002900D184E721005C310988B5
:101DAC00C91A89B2002900D17CE7EFF3108785F3BB
:101DBC0010882068334E03683340036087F3108823
:101DCC00EFF3108785F3108820682F4E836833401B
:101DDC00836087F31088230020208C331860E26620
:101DEC006267EFF3108085F3108810252268136862
:101DFC00AB43136080F3108802232367C1E780256F
:101E0C006D032B4206D0460204D520000D6202F071
:101E1C00B7F847E780210B4207D080252D041140ED
:101E2C002840014301D0A36FB1E640210B4216D0EC
:101E3C000A4214D0EFF31080012383F31088226838
:101E4C0013688B43136080F310882300202288339F
:101E5C001A6000232000A36702F037F822E719026A
:101E6C0014D5510012D5200000F0F5FE1AE7C0463B
:101E7C000F0800000100001020010004591B00088D
:101E8C00FFFEFFFFDFFEFFFFFEFFFFEFDB0100D4D5
:101E9C0008E7002A00DB05E7200000F0DBFE01E785
:101EAC0001008C310A68F8B50368222A5DD1040060
:101EBC0060345B6A2488826D234013700200836D4A
:101ECC005E32013383651388013B9BB21380138808
:101EDC009CB2002B45D1EFF31086013383F31088AD
:101EEC000568244F2A683A402A6086F31088EFF37D
:101EFC00108683F310880568AA689A43AA6086F353
:101F0C00108820220A6002681B49446704678A42D1
:101F1C000DD0526812020AD5EFF3108183F31088AA
:101F2C000268164C13682340136081F31088C36E4B
:101F3C00012B17D10022C266EFF3108483F31088B3
:101F4C0001680F330A689A430A6084F310880268A8
:101F5C00D169194200D0136203005C331988FFF772
:101F6C0000FEF8BD01F0AAFFFBE7082299690A43BD
:101F7C009A61F6E7DFFEFFFF00800040FFFFFFFBEA
:101F8C0002008C321168F8B5036822295CD1040078
:101F9C006034596A2488836D214019800100023312
:101FAC0083655E310B88013B9BB20B800B889CB226
:101FBC00002B45D1EFF31086013383F310880568AD
:101FCC00244F29683940296086F31088EFF3108676
:101FDC0083F310880568A9689943A96086F3108873
:101FEC002021116002681C49446704678A420DD0A5
:101FFC00526812020AD5EFF3108183F3108802683D
:10200C00164C13682340136081F31088C36E012BA8
:10201C0017D10022C266EFF3108483F31088016895
:10202C000F330A689A430A6084F310880268D169F6
:10203C00194200D0136203005C331988FFF791FD3D
:10204C00F8BD01F03BFFFBE7082299690A439A614E
:10205C00F6E7C046DFFEFFFF00800040FFFFFFFBFE
:10206C00F0B5036885B0DD691A68040003929A68BC
:10207C00019202008C321268222A00D0CBE00300BD
:10208C0068331B88002B08D123005E331B889AB25F
:10209C00002B00D09FE005B0F0BD030060331B881F
:1020AC00029320231D42EFD02600236802995B6A1D
:1020BC00A26D0B401370A36D5E360133A36533889C
:1020CC002268013B9BB233800723D5691D422FD078
:1020DC00063B1D4208D00399C90505D521001362A2
:1020EC009031086803430B6002231D4209D001990B
:1020FC00C90706D52100136290310868DB18034329
:10210C000B6004231D4209D00199C90706D513623F
:10211C00220090321168023B0B431360270090376A
:10212C003B68002B04D0200001F0D6FE00233B605E
:10213C00338899B2002BB4D1EFF31086013383F3BB
:10214C0010882068364F02683A40026086F3108887
:10215C00EFF3108683F310882068324F82683A4080
:10216C00826086F31088220020208C321060616718
:10217C00216722682C498A420DD0526812020AD576
:10218C00EFF3108183F3108822682848136803400A
:10219C00136081F31088E36E012B18D10022E266E4
:1021AC00EFF3108083F3108821680F330A689A4389
:1021BC000A6080F310882268D169194200D013623A
:1021CC0023005C3320001988FFF7CBFC69E7200063
:1021DC0001F074FE65E7230068331B88934200D836
:1021EC0059E7EFF31080012282F310882168104D1B
:1021FC008B682B408B6080F310880E4B6367EFF37A
:10220C00108182F310882023226810680343136026
:10221C0081F310883FE7082299690A439A613AE7EB
:10222C00FFFEFFFFFEFFFFEF00800040FFFFFFFB04
:10223C00FFFFFFEFAD1E0008F0B5036885B0DD6948
:10224C001A68040003929A68019202008C32126898
:10225C00222A00D0C9E0030068331B88002B08D168
:10226C0023005E331B889AB2002B00D09DE005B092
:10227C00F0BD030060331B88029320231D42EFD076
:10228C00260023680298596AA26D0140118002321F
:10229C00A2655E363288013A92B232800722DD693D
:1022AC0015422FD0063A154208D00399C90505D519
:1022BC0021001A629031086802430A60022215421A
:1022CC0009D00199C90706D521001A629031086816
:1022DC00921802430A600422154209D00199C907D9
:1022EC0006D51A6222000223903211680B43136048
:1022FC00270090373B68002B04D0200001F0ECFD48
:10230C0000233B60338899B2002BB6D1EFF31086D3
:10231C00013383F310882068364F02683A4002601C
:10232C0086F31088EFF3108683F310882068324F01
:10233C0082683A40826086F31088220020208C321A
:10234C0010606167216722682C498A420DD052685F
:10235C0012020AD5EFF3108183F310882268284803
:10236C0013680340136081F31088E36E012B18D1BE
:10237C000022E266EFF3108083F3108821680F339C
:10238C000A689A430A6080F310882268D16919425E
:10239C0000D0136223005C3320001988FFF7E1FBA7
:1023AC006BE7200001F08AFD67E7230068331B8888
:1023BC00934200D85BE7EFF31080012282F3108880
:1023CC002168104D8B682B408B6080F310880E4B6E
:1023DC006367EFF3108182F3108820232268106862
:1023EC000343136081F3108841E7082299690A437B
:1023FC009A613CE7FFFEFFFFFEFFFFEF008000400D
:10240C00FFFFFFFBFFFFFFEF8D1F00080200F0B581
:10241C00843211780300022001291FD01C000121F5
:10242C008834223011702060EFF3108681F310880D
:10243C000C271D682868B843286086F31088EFF3D2
:10244C00108081F31088196808230D682B430B60EA
:10245C0080F310882023002023601070F0BD020050
:10246C00F0B5843211780300022001291FD01C0022
:10247C0001218834223011702060EFF3108681F333
:10248C0010880C271D682868B843286086F31088CC
:10249C00EFF3108081F31088196804230D682B4327
:1024AC000B6080F310882023002023601070F0BD97
:1024BC00030088338C301B68006818437047000099
:1024CC00F8B504002569A26823682A436569196870
:1024DC00C0692A43734D024329400A431A605A6863
:1024EC007149A5690A40E1680A4370495A608B42F8
:1024FC0001D0226A15439A686D4E32402A430F254B
:10250C009A60DA6AAA43656A2A43DA62694A934294
:10251C0025D1694B5A6D03231A4080231B02022AD2
:10252C0000D1BBE0032A00D1B2E0012A00D1A8E01F
:10253C00984200D17DE0FEF7ADFE002845D0626ADE
:10254C005E4B5200D15AFDF7C7FD65686B08C01889
:10255C002900FDF7C1FD0200594B103A64E0594ABD
:10256C00934212D10C22544B5B6D1340082B00D1BB
:10257C0092E005D8002B00D081E080231B02D7E726
:10258C000C2B00D182E0012020E04F4A9342F4D082
:10259C004E4A9342F1D08B42F5D1C0228021464B5A
:1025AC0012015B6D090113408B4215D004D8002B2E
:1025BC0007D1FEF76FFE06E09342E4D18026360287
:1025CC000BE0FEF779FD061E07D10020404BA366F9
:1025DC0000236367A367F8BD3E4E626A374B520017
:1025EC00D75A30003900FDF777FD032365686B433C
:1025FC008342C8D82B038342C5D300233A00300052
:10260C001900FDF7DFFE0027060E0B023343020212
:10261C006E0892197B41100019002A003B00FDF74F
:10262C00D1FE2D4BC2182D4B9A42ACD82368D860E2
:10263C00CBE7FEF72FFE0028C7D0626A1F4B520073
:10264C00D15AFDF749FD656840006B08C018290098
:10265C00FDF742FD02001A4B103A9A4200D992E75C
:10266C000F23020000079A4393B2400F22680343E2
:10267C00D360AAE71748E0E7FEF71EFD5DE780236D
:10268C001B029842F8D1FEF717FDD4E780231B02FA
:10269C009842D2D0180052E780231B029842E9D00E
:1026AC000C484CE7F369FFCFFFCFFFFF00800040E1
:1026BC00FFF4FF110038014000100240786200085E
:1026CC00EFFF00000044004000480040004C004078
:1026DC00010001000024F40000FDFFFFFFFC0F00CF
:1026EC00836A30B51A0706D50168284C4A6822401F
:1026FC00846B22434A60DA0706D50168244C4A6889
:10270C002240C46A22434A609A0706D50168214CCC
:10271C004A682240046B22434A605A0706D5016876
:10272C001D4C4A682240446B22434A60DA0606D5A7
:10273C0001681A4C8A682240C46B22438A609A064C
:10274C0006D50168164C8A682240046C22438A60C4
:10275C005A0610D50168134D4A68446C2A4022432E
:10276C004A6080225203944205D14A680E4C2240A2
:10277C00846C22434A601B0606D502680B495368D9
:10278C000B40C16C0B43536030BDC046FF7FFFFF55
:10279C00FFFFFDFFFFFFFEFFFFFFFBFFFFEFFFFF54
:1027AC00FFDFFFFFFFFFEFFFFFFF9FFFFFFFF7FFC5
:1027BC00F7B504000D00170000932268D3692B4075
:1027CC005B1B59424B41BB4201D0002026E0089BC9
:1027DC000133F3D0FEF77EF8009BC01A089B984299
:1027EC002DD8002B2BD023681A685207E5D52A0068
:1027FC004021403A8A43E0D0DA6908261100314082
:10280C00019132420BD020001E62FFF745F82300E5
:10281C0090331E600023012084342370FEBD80227F
:10282C00D96912011142C8D01A622000FFF734F89E
:10283C002300202290331A60019B843423700320E0
:10284C00ECE7F0B51700020087B0883205931368E7
:10285C0004000D000220202B39D10138002936D07C
:10286C00002F34D08023A1685B01994204D12369E5
:10287C00002B01D105422AD12300002690331E6083
:10288C0021231360FEF726F8230054331F800233F4
:10289C0003931F808023A26804905B019A4204D1A9
:1028AC002369B34201D12E001D00230056331B882F
:1028BC009AB2002B0DD1059B200000934021049B64
:1028CC00FFF776FF20238834236000280ED107B051
:1028DC00F0BD059B0022009380212000049BFFF794
:1028EC0067FF002804D02023883423600320EEE700
:1028FC002268002D0BD133880236DB05DB0D936289
:10290C00039B039A1B88013B9BB21380CDE72B786A
:10291C0001359362F4E70000030073B50026040050
:10292C0090331E60FDF7D6FF236805001B681B075C
:10293C001FD58021284B320000938903030020000F
:10294C00FFF736FFB04214D0EFF31081012383F36D
:10295C0010888020226813688343136081F31088E9
:10296C002300202288331A60032000238434237030
:10297C0076BD260023688C361B685B0723D5802127
:10298C00154B0022009320002B00C903FFF710FF0A
:10299C00002818D0EFF31080012282F310882168F0
:1029AC000E4D0B682B400B6080F31088EFF31080FA
:1029BC0082F3108821688B6893438B6080F31088B6
:1029CC0020233360D0E723002022002088331A60B4
:1029DC003260E0662067C8E7FFFFFF01DFFEFFFF04
:1029EC0070B5041E01D1012070BD050088352B681F
:1029FC00002B04D1020084321370FFF747F8242314
:102A0C00012122682B6013688B431360A36A002B8F
:102A1C0002D02000FFF764FE2000FFF751FD0128D3
:102A2C00E1D0236807495A6820000A402A215A60DD
:102A3C009A688A439A60012219680A431A60FFF760
:102A4C006BFFD1E7FFB7FFFF70B5041E01D101206A
:102A5C0070BD050088352B68002B04D10200843230
:102A6C001370FFF713F82423012122682B601368DD
:102A7C008B431360A36A002B02D02000FFF730FEBB
:102A8C002000FFF71DFD0128E1D0236809495A6891
:102A9C0020000A4022215A609A688A439A600822D0
:102AAC0099680A439A60012219680A431A60FFF771
:102ABC0033FFCDE7FFB7FFFF03005C3370B58165D3
:102ACC0080241A805A800023816843676401A142E4
:102ADC003CD1036959424B411B02FF330100603169
:102AEC000B8003000021903319602231043B1960E4
:102AFC00EFF31084012383F3108801688D682B4356
:102B0C008B6084F3108880258021466E846803696D
:102B1C00AD054901AE423FD1050068352D8895427F
:102B2C003AD88C4233D1002B22D12C4B4367EFF394
:102B3C001081012383F31088802302685B05906861
:102B4C000343936081F31088002070BD002905D1E8
:102B5C000169FF230029C1D0803BBFE780246405B5
:102B6C00A142BBD101697F230029B7D0403BB5E717
:102B7C001B4B4367EFF31081012383F3108802682A
:102B8C00FF3314682343136081F31088CFE7144A92
:102B9C004267002BCBD0EDE78C421AD1002B0AD127
:102BAC00104B4367EFF31081012383F31088026805
:102BBC001F3310680AE00C4B4367EFF310810123BD
:102BCC0083F31088026820331068FF3303431360CB
:102BDC00B8E7054A4267002BE4D0EEE7452200082F
:102BEC006D2000088D1F0008AD1E000803008C33FB
:102BFC0070B51C680223202C28D1013B002925D05C
:102C0C00002A23D0802384685B019C4205D1036990
:102C1C00002B02D10133194218D100230C4CC3668E
:102C2C000368A3420FD05B681B020CD5EFF3108531
:102C3C00012383F3108880230468DB042668334364
:102C4C00236085F31088FFF737FF0023180070BD51
:102C5C000080004070477047020010B58432117834
:102C6C000300022001290ED001211170EFF3108016
:102C7C0081F31088196802230C6823430B6080F3DE
:102C8C0010880020107010BD020010B5843211782D
:102C9C000300022001290ED001211170EFF31080E6
:102CAC0081F31088022419680B68A3430B6080F32E
:102CBC0010880020107010BD836810B50400002B24
:102CCC0005D00322010098470023A360E36010BDE8
:102CDC00836810B50400002B02D003220100984732
:102CEC00200010BD4B1E032B00D9FEE788000438D2
:102CFC007047000000B50139425C102013000340FE
:102D0C00024204D0022917D80C4B4800C35AD207F0
:102D1C0008D5032910D80800FDF7CAF90206080BDC
:102D2C0001221343180000BD1022FAE78022520042
:102D3C00F7E780225201F4E7FEE7C04698620008EC
:102D4C000139032900D9FEE7014B585C7047C04696
:102D5C00946200080139032900D9FEE7014B585C45
:102D6C007047C04690620008F7B504000E00FFF7EC
:102D7C00B9FF310005002000FFF7E2FF3301643397
:102D8C00E31801939B68002B05D0C24323691A6199
:102D9C00DA680243DA60771E7B00E31898880B2808
:102DAC0017D8FDF785F94E17171706061717484859
:102DBC004828E35DDB0604D5200029001030FEF71F
:102DCC0063FDE35DDB0704D5200029001030FEF71E
:102DDC008BFCF7BDE35DDB0604D520002900103029
:102DEC00FEF70EFDE35DDB07F3D520002900103064
:102DFC00FEF7F8FBEDE7200029001030FEF778FC19
:102E0C0031002000FFF7A6FF010006002000FFF7AD
:102E1C0071FF25692B6A1843019B28629B68002B64
:102E2C00D7D031002000FFF78BFFC3432B61EB6839
:102E3C001843E860CDE7200029001030FEF758FC5D
:102E4C00C7E723691B68DB07C3D420001030FEF7EB
:102E5C004FFABEE770B50121040002256B00E35A5E
:102E6C00002B04D0691E2000FFF77EFF00210135E6
:102E7C00062DF3D1E36E002B07D0022223695242B8
:102E8C001A61D86803320243DA60002907D023693B
:102E9C001B68DB0703D420001030FEF729FA70BD45
:102EAC0080220369002903D019680A431A6070470D
:102EBC00196891431960FAE710B501211030FEF73B
:102ECC0049FA10BD0369186801231840704770B5A2
:102EDC0005000C00FFF7F6FF00280FD10126E36870
:102EEC0033420CD0E3682800B343E360FFF7E4FF00
:102EFC0002235B422361E3681E43E66070BD280039
:102F0C00FFF7DAFFFAE70B0010B50169013B8B62A2
:102F1C00FFF7DDFF10BD0000174A0300904222D0DE
:102F2C008022D205904220D0144A90421FD0144ADD
:102F3C00032093421CD0134A0130934218D0124AFA
:102F4C000130934214D0114A0130934210D0104AF0
:102F5C00013093420CD00F480F4A934209D00D4BCD
:102F6C00984205D1FEE70020F6E70120F7E70220A2
:102F7C0070470820FCE7C046002C014000040040CC
:102F8C0000100040001400400020004000400140B0
:102F9C0000440140FFFF00000048014070B50400F0
:102FAC000069FFF7B9FF05002000103000F0BAFDF2
:102FBC000022084BAD00EA5026002500E260B43533
:102FCC006436B54204D0103D2800FFF781FEF8E7C7
:102FDC00200070BDB4020020F8B5040008000D00FC
:102FEC00FFF79AFF2369002B00D0FEE721001A4A55
:102FFC0080000C31815022002C3225612600137088
:10300C00203223636363A363E36323646364A36475
:10301C001370537003221036300025002700E46033
:10302C00E265236600F0F2FC6435B43728001035F5
:10303C00FFF742FEBD42F9D10023084A23606360CA
:10304C00A3606361A3612362636280333000E26139
:10305C00A362FEF78FFAF8BDB4020020FFFF000058
:10306C0030B587B002AC050010220021200002F020
:10307C002BF90023200001A90193FEF71FF9286901
:10308C0000F06BFE012815D1059CFEF703F9C02357
:10309C00DB019C4206D007D88022074BD20123408B
:1030AC00934205D1400003E0E023DB019C42F9D0C0
:1030BC0007B030BDFEE7C046FFEFFFFF70B505005F
:1030CC000C00012A0CD0022A18D023005A1E93415E
:1030DC002969E41A2800CC62EC61FFF7F8FE70BD98
:1030EC00FFF7BEFF0849FCF7F7FF60432B69010CA3
:1030FC0099620131FCF7F0FF0400E6E7FFF7B0FF3F
:10310C002100FCF7E9FFF1E740420F00044B10B53A
:10311C001868002802D00430FEF732F910BDC04602
:10312C00B402002010B5FFF7F1FF10BD044B10B531
:10313C005868002802D00430FEF722F910BDC046B2
:10314C00B4020020044B10B59868002802D004305B
:10315C00FEF716F910BDC046B4020020044B10B5A2
:10316C00D868002802D00430FEF70AF910BDC0461A
:10317C00B4020020044B10B51869002802D00430AA
:10318C00FEF7FEF810BDC046B4020020044B10B58B
:10319C005869002802D00430FEF7F2F810BDC04682
:1031AC00B4020020044B10B59869002802D00430FA
:1031BC00FEF7E6F810BDC046B4020020044B10B573
:1031CC00D869002802D00430FEF7DAF810BDC046EA
:1031DC00B4020020044B10B5186A002802D0043049
:1031EC00FEF7CEF810BDC046B402002010B50C227C
:1031FC000021040002F068F800232000E36010BDF9
:10320C00F8B50500070004000E006435B43728003B
:10321C001035FFF7EBFFBD42F9D100233100200040
:10322C002361FFF7D9FE2000F8BD70B50C220D000C
:10323C000021040002F048F80023E360AB68002B87
:10324C0007D00222290020009847EB68E360AB68A6
:10325C00A360200070BD70B5040086B002AD2800DC
:10326C00FFF7E3FF29000822684602F022F92B0041
:10327C0022006E4603CA03C3230006CE06C3049B7A
:10328C00A268A360059B0492E2682800E3600592A3
:10329C00FFF71EFD06B070BDC36E70B504000D00C7
:1032AC006430002B02D0FFF7D6FF70BDFFF7D3FFC1
:1032BC00AB68002BF9D00222236952421A61D968FB
:1032CC0003320A43DA60F0E7836810B5002B01D1B2
:1032DC0002F036FFC368984710BD10B5002800D126
:1032EC00FEE700F091FB0068C36E002B02D0643047
:1032FC00FFF7EAFF10BD10B5FFF7EFFF10BD03009D
:10330C0010B5002800D1FEE7007F0138072812D83D
:10331C00FCF7CEFE04161112111111140124180021
:10332C0000F072FB24010068643400198368002BE0
:10333C0001D0FFF7C9FF10BD0324F0E70424EEE72A
:10334C000224ECE710B5FFF7DAFF10BD10B5FFF75C
:10335C00D6FF10BD10B501F04BFD10BD10B501F03E
:10336C0051FD10BD7FB5002304280FD81B4B5A6BA1
:10337C00FCF79EFE030F18212A0001210A435A6311
:10338C005B6B0B400193019BA023DB05180007B07E
:10339C0000BD02210A435A635B6B0B400293029BF4
:1033AC000F4BF3E704210A435A635B6B0B40039307
:1033BC00039B0C4BEAE708210A435A635B6B0B40F7
:1033CC000493049B084BE1E720210A435A635B6B8F
:1033DC000B400593059B054BD8E7C04600100240F7
:1033EC000004005000080050000C00500014005065
:1033FC0010B5074900F0D0FA0003C00E012802D026
:10340C00022802D0FEE7002010BD1020FCE7C046C9
:10341C0020680008084B02689A420CD18022074BA6
:10342C009205D96A0A43DA62DA6A05490A40DA6215
:10343C00DA6B0A40DA6370470074004000100240F7
:10344C00FFFFFFDF10B50A4986B0040000F07CFADC
:10345C000190002809D02000FFF7CAFF010001A845
:10346C00FDF737FB01A8FDF725FB06B010BDC046E4
:10347C0020680008F7B5134B06001900019300F003
:10348C0063FAFFF749FD104F8500EB59002B0DD166
:10349C00B420FFF75FFF01990400300000F054FAEC
:1034AC0001002000FFF7ACFEEB591C601C68002CDF
:1034BC0006D02000FFF772FDB4212000FFF74EFF6D
:1034CC00F7BDC04680650008B402002010B5FDF7BA
:1034DC0001FA10BD704710B5FDF7F0F9FDF77BFA56
:1034EC00FFF7F8FF10BD000010B590B03822002196
:1034FC00040002A801F0E8FEFDF784FB8021294BB3
:10350C00C900DA6B0A43DA63DA6B0A400192019A5A
:10351C00032C0ED82000FCF7CBFD02152837012117
:10352C001A6E0A431A661B6E9B0702D40823089175
:10353C000293029B002B33D002A8FDF799FB0028C5
:10354C002ED0FEE780211A6849000A431A601A68D7
:10355C00154802400A431A601B685B05E9D4022334
:10356C0002933E3305910793E3E70121DA6D0A4399
:10357C00DA65DA6D9207DCD41820DA6D8243DA65ED
:10358C00042304910293D4E780211A6849020A4368
:10359C001A601B689B03CCD4012303910293C8E7E8
:1035AC0010B010BD00100240FFC6FFFF70470000B6
:1035BC0080210E4B4905DA6B84B00A43DA63DA6B6F
:1035CC000A4001210192019A1A6C0A431A641A6C7E
:1035DC000A4080210292029A9A6B49010A439A632B
:1035EC009B6B0B400393039B04B07047001002408D
:1035FC0010B5FFF7DDFFC020C000FDF771F9FDF736
:10360C0049F9FFF7D3FF01F051F80248FDF7E8F94B
:10361C0010BDC0461C00002010B50C220021040077
:10362C0001F052FE0023E36010BD0000002310B532
:10363C0001280BD114225A43064B101DC018816867
:10364C00002902D09B181B69984710BD0133400814
:10365C00DBB2EDE7D802002010B5FFF7E7FF10BD95
:10366C0010B5FFF7E3FF10BD10B50120FDF7B6FA5A
:10367C000220FDF7B3FA10BD10B50420FDF7AEFA29
:10368C000820FDF7ABFA10BD70B50C241025A8B2BC
:10369C00013CFDF7A3FA6D00002CF8D170BD0000C1
:1036AC00F8B505252E4F2F4C38002570FFF7B4FFC9
:1036BC002D4E25753000FFF7AFFF23000135283361
:1036CC002A481D70FFF7A8FF230029483C331D70C2
:1036DC00FFF7A2FF23000135503326481D706037D9
:1036EC00FFF79AFF24483D706036FFF795FF23489B
:1036FC003570FFF791FF230021488C331D70FFF7C5
:10370C008BFF23001F48A0331D70FFF785FF23009C
:10371C001D48B4331D70FFF77FFF23001B48C833CF
:10372C001D70FFF779FF23001948DC331D70FFF77C
:10373C0073FF23002600F03316481D70FF36FFF789
:10374C006BFF15487571FFF767FF14487576FFF727
:10375C0063FF962312485B00E554FFF75DFFF8BD4D
:10376C00DC020020D8020020F0020020040300201C
:10377C00180300202C0300204003002054030020D9
:10378C00680300207C03002090030020A403002089
:10379C00B8030020CC030020E0030020F403002039
:1037AC000804002010B5044C143C201DFFF790FABF
:1037BC00024B9C42F8D110BD18040020D802002006
:1037CC00431C04D100207047834204D00C310B6899
:1037DC005A1CF9D1F6E70120F5E70000F7B5050012
:1037EC000C00431C00D1FEE70F23484A0340C0B233
:1037FC009B0009389F5803280ED8FCF759FC022669
:10380C003035C0232A009B011A409A4204D1082368
:10381C003F4A11680B431360072628062640000F09
:10382C000196FFF79FFD8268030094463A0003203F
:10383C0066467A435043C14330439860019803284D
:10384C0052D8FCF735FC52542D15C0232A009B018D
:10385C001A409A42E0D12E4A10231168DAE7082167
:10386C002B4A13688B43D6E7294A10211368F9E7D2
:10387C00032050431D68019E0D402843013E1860F3
:10388C00012E04D8200734D5586838435860A40654
:10389C00A40F012C30D0022C33D0DA680A402EE071
:1038AC006004400E84467F2801D10220E1E72D07F9
:1038BC000DD50F25586A0600380A4043404345434E
:1038CC00AE4335006646704305435D62EDE7186A0A
:1038DC000F250600100050434543AE4335006646A5
:1038EC00704305431D62E0E7FEE70020C1E70120BD
:1038FC00BFE75868B843C9E7D86801400A43DA60A3
:10390C00F7BDD86852000140F8E7C046A062000835
:10391C000000014010B5431C07D110BD834203D1F8
:10392C008968FFF75BFFF8E70C310B685A1CF5D17F
:10393C00FEE70B685A1C01D1002002E0834201D142
:10394C00486870470C31F4E7002310B5421C02D0D4
:10395C00FFF7EFFF0300180010BD4B68002B02D1DE
:10396C000120404202E0834201D1086870470C31CB
:10397C00F3E710B5002802D0FFF7EFFF10BD0120D0
:10398C004042FBE703000868421C02D0984201D178
:10399C00886870470C31F6E710B5431C01D0FFF76F
:1039AC00F1FF10BD030008008B4205D0002B03D0A3
:1039BC00424250414042184070470000A0220D4B3B
:1039CC00D20019680C480A4300211A6099601A68E1
:1039DC0002401A6080225201DA601A6807480240DD
:1039EC001A60074A99611A628022064B12059A6086
:1039FC007047C04600100240FFFFF6FEFFFFFBFFC2
:103A0C003B03000000ED00E00438704703683C4ABB
:103A1C008AB0934217D180203A4A0001116C0143BD
:103A2C001164126C02400192019A374A934217D1E9
:103A3C008021344B09021A6C0A431A641B6C0B402C
:103A4C000693069B5AE08022D205934216D10120A0
:103A5C002C4AD16B0143D163D26B02400292029A81
:103A6C002A4A934216D18021264B49021A6C0A43EA
:103A7C001A641B6C0B400793079B3FE0244A93424C
:103A8C0016D102201F4AD16B0143D163D26B024085
:103A9C000392039A1F4A934216D18021194B890233
:103AAC001A6C0A431A641B6C0B400893089B25E0A4
:103ABC00194A934216D11020124AD16B0143D1639B
:103ACC00D26B02400492049A144A934216D180217C
:103ADC000C4BC9021A6C0A431A641B6C0B400993F9
:103AEC00099B0BE00E4A93429FD12021054BDA6BC8
:103AFC000A43DA63DB6B0B400593059B0AB07047F6
:103B0C00002C014000100240002000400040014009
:103B1C0000040040004401400010004000480140F7
:103B2C00001400400368244A93420DD123492448D1
:103B3C000A6C02400A64234A93420ED11F4A22495E
:103B4C00136C0B40136435E08022D20593420BD1E9
:103B5C0001201A49CA6B8243CA631C4A93420BD197
:103B6C00164A1B49136CECE71A4A93420BD10220FC
:103B7C001249CA6B8243CA63174A93420BD10F4A4C
:103B8C001649136CDDE7164A93420BD110200B49F2
:103B9C00CA6B8243CA63134A93420BD1074A124938
:103BAC00136CCEE7114A9342C5D12021034AD36B43
:103BBC008B43D3637047C046002C01400010024079
:103BCC00FFF7FFFF00200040FF7FFFFF0040014098
:103BDC00FFFFFEFF0004004000440140FFFFFDFF1B
:103BEC000010004000480140FFFFFBFF00140040A4
:103BFC000300421C26D01A4A904226D011D8194AEA
:103C0C00904224D008D88022D205904221D0164A66
:103C1C001020934215D0FEE7144A1220934210D084
:103C2C00F9E7134A904216D007D8124A904214D0A2
:103C3C00114A1420934204D0EDE7104A1620934207
:103C4C00E9D170470E204042FBE71320F9E7112021
:103C5C00F7E70F20F5E71520F3E70D20F1E7C04655
:103C6C000020004000100040000400400014004000
:103C7C0000440140002C014000400140004801403C
:103C8C000300421C26D01A4A904226D011D8194A59
:103C9C00904224D008D88022D205904221D0164AD6
:103CAC001020934215D0FEE7144A1220934210D0F4
:103CBC00F9E7134A904216D007D8124A904214D012
:103CCC00114A1420934204D0EDE7104A1620934277
:103CDC00E9D170470E204042FBE71320F9E7112091
:103CEC00F7E70F20F5E71520F3E70E20F1E7C046C4
:103CFC000020004000100040000400400014004070
:103D0C0000440140002C01400040014000480140AB
:103D1C00F8B50400FFF77AFE2068FFF769FF226D03
:103D2C00E16CFCF7E9FD2068FFF762FFFCF70EFE83
:103D3C0027683800FFF7A4FF05003800FFF758FF8D
:103D4C00854209D02800226DE16CFCF7D5FD206876
:103D5C00FFF796FFFCF7FAFDF8BD0130431E9841C2
:103D6C00C0B2704710B5B1300278064B9200D058F3
:103D7C00FEF79EFB22231840223843425841C0B222
:103D8C0010BDC0461804002010B5B1300278064BA7
:103D9C009200D058FEF78CFB212318402138434267
:103DAC005841C0B210BDC0461804002070B50400C4
:103DBC000E00002802D10120404270BDFFF7D2FF57
:103DCC00051EF8D12100B2310B78B1343370207854
:103DDC00034B80000122C058FEF708FF2800ECE7D7
:103DEC001804002070B504000D0000281AD0FFF74D
:103DFC00B9FF002816D1230098331D602500002040
:103E0C00B0352856FCF7AEFD2100B1342078064BB6
:103E1C0080000122C058B231FEF7E8FE002028567F
:103E2C00FCF794FD70BDC0461804002070B504006A
:103E3C00150000281BD00300060000209C331960DD
:103E4C00B0363056FCF78EFD23002100C233B8315A
:103E5C001B880968B1342078C918054B8000C058FC
:103E6C00AAB2FDF715FE00203056FCF76FFD70BDB1
:103E7C001804002010B500280BD00300A4331B68D5
:103E8C00013306D1B1300278024B9200D058FEF7C4
:103E9C00BDFA10BD1804002010B500280BD003008B
:103EAC00A4331B68013306D1B1300278024B920067
:103EBC00D058FEF7D4FA10BD18040020030010B53A
:103ECC0094331B680438984710BD030010B5983321
:103EDC001B680438984710BD0122036810B5D969D6
:103EEC0004000438114201D01A620BE00222D96995
:103EFC001142F9D10422D9691142F5D10822D969AC
:103F0C001142F1D1FFF72EFF002805D1210001222B
:103F1C002000AE31FEF76AFE10BD000010B51B206C
:103F2C00FCF74AFD024B1868FDF71CFE10BDC0469D
:103F3C00180400201C2010B5FCF73EFD034B5868FC
:103F4C00002801D0FDF70EFE10BDC046180400205D
:103F5C001D2010B5FCF730FD084CA068002801D0DE
:103F6C00FDF700FEE068002801D0FDF7FBFD20699D
:103F7C00002801D0FDF7F6FD10BDC0461804002046
:103F8C00010010B50122AE31FEF730FE10BD00006D
:103F9C000368174A93420AD1164B586D03231840F5
:103FAC00022822D0033843425841C0037047124ABA
:103FBC00934207D10F4B586D0C231840082814D08E
:103FCC000C38F0E70D4A00209342EFD00C4A934294
:103FDC00ECD1084B586DC0231B01184080231B01EA
:103FEC00984202D0074BC018DDE70748DEE7C04611
:103FFC0000380140001002400044004000480040DE
:10400C000080004000F4FFFF0024F400F0B5040031
:10401C0087B0FFF7BDFF65682A4B226804906E08D5
:10402C009A422CD100231C000193274B0096274F5A
:10403C00274E05936300F35A059A5B00D25A00236E
:10404C0004981900FCF7BEF9030E0A021A43030286
:10405C000392029302980399009A019B801859418C
:10406C0000232A00FCF7AEF91A4BC018B84203D94A
:10407C0001340C2CDED10024200007B0F0BDE36924
:10408C0000240093104B144F0293114B0593059A87
:10409C006300D35A029A5B00995A0498FCF71CF8F7
:1040AC008022009B1202934200D14000290080190B
:1040BC00FCF712F81038B842DED901340C2CE6D1DA
:1040CC00D9E7C0460080004078620008FFFC0F0072
:1040DC004063000800FDFFFFEFFF0000F0B593B058
:1040EC00079318AB069204CB04001B780591099337
:1040FC001AAB1B7808920A931BAB1B780B93002806
:10410C0002D1002013B0F0BD0500D94BA035190029
:10411C00286827000193FFF717FCD64EA43731000F
:10412C0002903868FFF710FC2300A833D2490090A6
:10413C001868FFF709FC2300AC33D04903901868CA
:10414C00FFF702FC310004902868FFF7FDFB019992
:10415C0005003868FFF7F8FB029B0190002B01D19A
:10416C00002DCED03B68013305D0009B002B02D133
:10417C00019B002BC5D02300A8331B68013302D050
:10418C00039B002BBDD02300AC331B68013302D042
:10419C00049B002BB5D000990298FFF703FC20601C
:1041AC00002804D128000199FFF7FCFB206003993B
:1041BC00FFF7F8FB04992060FFF7F4FB2060002860
:1041CC009FD0AF4BAF4F984200D0D4E08022AE4B83
:1041DC00D201196BAD4811431963196B0140196376
:1041EC00196C114319641B6C13400D930D9B002229
:1041FC001B232100B1310A702200B0321370029BD4
:10420C00002B00D118E12300A03318689849FFF760
:10421C0081FB009B002B00D007E1002300260293BA
:10422C00039BB34207D02300A83393491868FFF7C8
:10423C0071FB0136FF36049B002B08D080239B00BA
:10424C001E432300AC338D491868FFF763FB220033
:10425C00B13212788E4B251D9200D5502368280060
:10426C006360059BE661A360069BE360089B23618A
:10427C00079B63610C23A36100232362FFF7C6FE37
:10428C000823E362029BA062E363099B002B04D02A
:10429C000A23E36280235B0263630A9B002B06D034
:1042AC000123E26A1343E36280239B0223630B9B8B
:1042BC00002B06D00423E26A1343E3628023DB0263
:1042CC00A3630022B020626201212056FCF714FB8C
:1042DC002368BB4240D19623059A28009B019A4241
:1042EC0000D9BFE0FEF7B8FC009B2800002B00D0E3
:1042FC00BBE0019B002B00D0B7E0FEF7A5FB00282C
:10430C0000D1F2E09623059A5F4E9B019A4200D8A9
:10431C00D0E033685B0500D5ECE02368BB4203D1E9
:10432C00736D5C4A13407365009B2800002B00D012
:10433C00FAE0019B002B00D0F6E0FEF785FB00288D
:10434C0000D1D2E02368BB4206D1726D514B1A40AA
:10435C008023DB0013437365009B2800002B00D0E7
:10436C00E5E0019B002B00D0E1E0FEF76DFB434242
:10437C005841C0B2C6E6484B984213D18022424BFA
:10438C009202D96A45481143D962D96A0140D9626F
:10439C00D96B1143D963DB6B13400E930E9B012237
:1043AC001C2326E73E4B984213D18022364BD20277
:1043BC00D96A3C481143D962D96A0140D962D96B98
:1043CC001143D963DB6B134002220F930F9B1D2308
:1043DC000FE7354B984212D180222B4B1203D96A2E
:1043EC0032481143D962D96A0140D962D96B114361
:1043FC00D963DB6B134010930322109BE7E7B842A1
:10440C0000D07EE68022204B5203D96A2848114303
:10441C00D962D96A0140D962D96B1143D963DB6B7C
:10442C00134011930422119BD1E72300A4331149AB
:10443C001868FFF76FFAF0E6002D00D1EDE62300C7
:10444C00A03318680B49FFF765FA019B002B02D1CA
:10445C0080231B02E2E62300A43305491868FFF70A
:10446C0059FAF5E7FEF710FC3EE7FEF7B9FA46E716
:10447C00E464000854640008D06300085863000822
:10448C00003801400080004000100240FFBFFFFFD9
:10449C0018040020FFF3FFFF00440040FFFFFDFF66
:1044AC0000480040FFFFFBFF004C0040FFFFF7FF00
:1044BC00FFFFEFFF0220FFF717F8F36D9B0700D407
:1044CC0027E72368BB4204D1C023726D1B01134341
:1044DC007365009B2800002B09D1019B002B06D192
:1044EC00FEF7B2FA002800D013E701200AE6FEF727
:1044FC0077FAF7E72368BB4206D1726D0D4B1A4071
:10450C0080231B0113437365009B2800002B08D1EB
:10451C00019B002B05D1FEF797FA002800D0FCE692
:10452C00E3E7FEF75DFAF8E7FEF75AFA07E7FEF75E
:10453C0057FA1CE7FFF3FFFF1FB50C4B0C495C6CE3
:10454C002000FFF701FA002290420CD09621094B73
:10455C0009481C6089011300039202920192009297
:10456C00FFF7BCFD0200100004B010BD5C68000831
:10457C00E4640008E400002044000020F0B585B09D
:10458C000C000390FCF7A6F9274B02901B78274DE3
:10459C00042B16D8FA27B1352A78254B9200D5581A
:1045AC00BF002E1F3000FFF7EFFB002835D1FA2398
:1045BC0028000399A2B29B00FEF743F900280AD108
:1045CC000AE01C4B1C495B6C18000193FFF7BCF90B
:1045DC000023984214D10024200005B0F0BD144FE4
:1045EC009A00D259002A09D013490198FFF7ACF967
:1045FC0033789A00D259126882420BD00133DBB265
:10460C002E00B1363370042BE9D9FFF795FF002843
:10461C00C0D1E0E7042BBDD9F7E7FCF75BF9029BAF
:10462C00C01AB842BED3D6E7F500002044000020E3
:10463C00180400205C680008E464000803000A49C0
:10464C0010B50868C318EFF30882934205D90C2201
:10465C000120064B40421A6010BD054A054C121B46
:10466C009342F4D20B60F7E70C010020E80600201F
:10467C00009000200004000001204042704780237D
:10468C009B0100204B607047012070470020704751
:10469C0000207047FEE7000016220120014B40422B
:1046AC001A607047E80600200120704730B593B0BF
:1046BC003822002104A800F007FE102200216846D1
:1046CC0000F002FE80208000FCF7A6FA80235B003D
:1046DC000793002308930D9308330E9380239B02BA
:1046EC000F9380239B0410938023022540229B056B
:1046FC0004A8049509920B950C951193FCF7B8FA44
:10470C00002800D0FEE7072302900390290068469A
:10471C0000930195FCF714FD002800D0FEE713B0C0
:10472C0030BDAA23A8215B00C35A4900405A40332C
:10473C00181A3F2318407047AA235B00C25A043B47
:10474C00C35A9A4203D0FC30C26CD05C7047012033
:10475C004042FBE7A923AB225B005200C35C805AAA
:10476C00C0B2834202D3C01A3F307047C01A01381E
:10477C00FBE713B56B460268D9710733546819000F
:10478C000122A04716BD37B56B46DD1D290004007C
:10479C00FFF70CFB002810D122003F21C0321388F8
:1047AC0001330B402100BC3109888B4205D0B43455
:1047BC00118820682D784554138037BD0300010003
:1047CC0070B5C233C4311A880C6812193F242240C8
:1047DC001A800200BE3212881D880024AA4217D00B
:1047EC001D8840321C880B4B521BA4B21A4004D5B6
:1047FC004023013A5B421A43013240231B1B9A426D
:10480C0000D91A000A6001240349FFF70FFB644228
:10481C00200070BD3F000080C9470008F7B5036851
:10482C0000919B68019204009847A92340275B00E4
:10483C00E35A0500FF1A012323742300FC33DB6BBE
:10484C0001330AD15E23FF33E25C002A05D000223B
:10485C002000E2549430FFF70DFB236820009B6886
:10486C0098470028F9D0019EBE4227D8AE4225D8E1
:10487C00A92327005B00E35AFC37386D9A19C0183E
:10488C00402A34D83200009900F013FE3500A922DA
:10489C005200A35A3F219B1926000B40943630003E
:1048AC00A352FFF771FA002806D1FC342A0030001D
:1048BC001549E565FFF7BAFA0198FEBDBD4200D96E
:1048CC003D0023682A005B68009920009847009BF4
:1048DC0020005B1900932368761B9B689847A923DB
:1048EC005B00E75A133BFF3B0500DF1BBCE7402591
:1048FC00ED1A2A00009900F0DCFD009B386D721B4C
:10490C00591900F0D6FDC2E7C947000810B591420D
:10491C0001D1012149420400FC342364029BA263AF
:10492C0063640300AA221433E36400235200E1639E
:10493C008352020054322265AB22520063658352CB
:10494C0010BD00000023F0B585B04360FA239B0036
:10495C0083601C4B040003600123FC345B42E36363
:10496C00194F1A4B05000E00786C03929D4203D12F
:10497C003B6CE363A0630AE0154B19000293FEF74E
:10498C00E3FF864214D13B6CE3637B6CA36301238E
:10499C00039A5B42012A00D1E363009301232800B0
:1049AC00A26BE16B5B42FFF7B1FF280005B0F0BDD5
:1049BC0030000849FEF7DDFF0299E0633000FEF796
:1049CC00D8FFD7E7206900085C6800082C04002099
:1049DC00E464000854640008F7B5037C04000D007F
:1049EC00002B16D0FBF776FFA927AB2601907F0092
:1049FC007600E25BA35B9A420BD0002DFAD0FBF75A
:104A0C0069FF019BC01A8542F3D8A923A25B5B0006
:104A1C00E252F7BD10B50021FFF7DEFF10BD030019
:104A2C00FC33DB6B10B5040001330DD10368DB687C
:104A3C0098475E23FF33E25C002A05D12000013247
:104A4C00E2549430FFF728FA10BD00000300F0B5D3
:104A5C00FC3385B05966AF235B00C254583BFF3B17
:104A6C001340023BDBB204000026042B01D819488A
:104A7C00C65C30231340302B25D1C0230136DB001C
:104A8C00073E022E25D82500E77C12070397A77C4A
:104A9C0011480297677CD20F52039435B6000092EE
:104AAC00019732582800FFF719FBAE235B00E05446
:104ABC00002806D02000FFF7B2FF28000749FFF7B7
:104ACC0091F905B0F0BD00239006D9D580230136AD
:104ADC00D5E7FEE710690008046900089347000851
:104AEC0010B50400FFF79BFFAA23A8225B0052001D
:104AFC00E15AA35A994208D02100FC31C96CC85C18
:104B0C003F2101330B40A35210BD01204042FBE773
:104B1C0010B5002202480349FFF714FF10BDC04630
:104B2C002C0400200080004010B5040000F01EF999
:104B3C00E060236820005B699847002808DA00F0E1
:104B4C0015F9E368C01AA3689842F2D301204042D9
:104B5C0010BDF8B506000F0015000024AC4201D1C1
:104B6C002000F8BD3000FFF7DFFF431CF8D03855AC
:104B7C000134F3E7F7B50F0016001D001C1E019061
:104B8C000BD000240198FFF7CFFF431C05D0B8428F
:104B9C0003D030550134A542F4D12000FEBD10B530
:104BAC001C00431A0298511A001B5843FBF71EFBBA
:104BBC00001910BD10B500F00FF910BD10B500E0D4
:104BCC0000BFFBF76DFCFBF79FFC00F0F5F8FAE774
:104BDC000D488546FEF7F2FE0C480D490D4A0023A0
:104BEC0002E0D458C4500433C4188C42F9D30A4A96
:104BFC000A4C002301E013600432A242FBD300F004
:104C0C0031FCFFF7DBFFFEE70090002000000020E6
:104C1C006C010020746A00086C010020F006002072
:104C2C00FEE70000F7B5C3B204000191292B29D887
:104C3C00E0222B499B005C58D20002401443631CB9
:104C4C0041D00F2625093540264FAD00EB592640A3
:104C5C00F340DB070DD520002349FEF7B1FD0028FA
:104C6C0023D02000FEF7EEFB0122B2407B59934388
:104C7C007B51019B052B31D81800FBF719FA202B1F
:104C8C002527292DC0220240C02A1CD1C52B1AD899
:104C9C003F23164903409B005B58E021104A9B00C0
:104CAC009B58C9000C401C43C9E720001049FEF773
:104CBC0087FD0028D8D02000FEF7DCFBD4E70021CC
:104CCC002000FEF78BFDF7BD1021F9E72021F7E757
:104CDC000321F5E70121F3E70921F1E7FEE7C046DF
:104CEC005C680008900500202068000844680008F3
:104CFC0080650008C3B210B5292B19D8E022174CD7
:104D0C009B00D200024018591043431C0FD00306DD
:104D1C0000221B0F042B02D8114A9B009A580F2417
:104D2C00104B20408000C358002914D0936110BD53
:104D3C00C0220240C02AFAD1C52BF8D83F230A4C16
:104D4C0003409B001B59E024044A9B009B58E40041
:104D5C0020401843D9E79362E9E7C0465C68000835
:104D6C0008000020A06200084468000810B5FEF797
:104D7C00ADFB10BD70B5041E09D0FEF7A7FB0500F6
:104D8C0000F02EF8FEF7A2FB401BA042F8D370BD3A
:104D9C00030070B508001400002B05D05A1E012A20
:104DAC0004D82100FFF7EAFB200070BD1A68180038
:104DBC0055682200A847F7E7054B10B5002B06D025
:104DCC000448FFF7AEFC002801D000E000BF10BD86
:104DDC00000000002C04002010B5FEF709FC10BDEB
:104DEC00704710B50A22002100F052F910BD0000E6
:104DFC0010B5034B0100186800F030F810BDC04628
:104E0C001C01002010B5034B0100186800F078FB62
:104E1C0010BDC0461C01002070B50F4E0D0031684E
:104E2C000400002902D100F0F1FA306029002000C2
:104E3C0000F0ECFA431C03D101256D42280070BD33
:104E4C000323C51C9D43A842F8D0291A200000F06A
:104E5C00DDFA0130F2D1EFE7A4050020F7B503220B
:104E6C00CB1C9343083305001F000C2B34D20C27AA
:104E7C00B94233D8280000F071F8374E33681C0063
:104E8C00002C2FD139002800FFF7C6FF0400431C6B
:104E9C005FD134680094009B002B4AD1002C52D077
:104EAC0023682800E3180099019300F0AFFA019BE6
:104EBC00834248D123682800FF1A3900FFF7ACFF62
:104ECC00013040D02368DB19236033685A68002A0C
:104EDC0033D1009B336019E0002BC9DA0C232B6013
:104EEC000020FEBD2168C91B20D40B290AD9E21968
:104EFC002760A34204D1326063681160536005E0FF
:104F0C005A60F9E76268A3420ED13260280000F0C3
:104F1C002DF8200007220B30231D9043C21A984213
:104F2C00DFD01B1AA350DCE75A60EFE7230064685C
:104F3C00A6E7009C63680093ADE71A005B68A34288
:104F4C00FBD10023DAE70C2328002B6000F00EF8CD
:104F5C00C6E70760DAE7C046A805002010B502488E
:104F6C0000F0A5FA10BDC046EC06002010B50248B2
:104F7C0000F09EFA10BDC046EC060020F0B585B0DE
:104F8C0017001E0003900191242B23D80C00012B39
:104F9C0020D03D4B08229C46230061461D780134ED
:104FAC00485D010011401042F6D12D2D19D1257804
:104FBC009C1C012300931022330093431DD1302DF0
:104FCC0015D1202123788B43582B10D165780234CE
:104FDC00102612E000F040FA16230360002005B002
:104FEC00F0BD00912B2DE6D125789C1CE3E7002E1B
:104FFC00EED10A36302D00D1023E244A009B944655
:10500C006344310018000293FBF7ECF8002284464D
:10501C0010002B00303B092B11D81D00AE421DDDBA
:10502C00531C09D001225242844505D301D1A94217
:10503C0011DB01227043281825780134E9E72B0095
:10504C00413B192B01D8373DE8E72B00613B192B6D
:10505C0004D8573DE2E701225242EDE7531C08D138
:10506C002223039A02981360002FB8D0631E019379
:10507C0007E0009B002B00D04042002FAFD0002A4D
:10508C00F4D1019B3B60AAE745690008FFFFFF7F55
:10509C0010B5044C13000A0001002068FFF76EFFE6
:1050AC0010BDC0461C010020002310B50400036095
:1050BC004360836081814366C28103614361836184
:1050CC00190008225C3000F0FFF80B4B246263627D
:1050DC000A4BA3620A4BE3620A4B23630A4B9C42C2
:1050EC0005D00A4B9C4202D0094B9C4203D12000B4
:1050FC00583000F0DBF910BD3D5200086552000835
:10510C009D520008C9520008AC050020140600206E
:10511C007C06002010B5034A0349044800F06CF8E3
:10512C0010BDC04610010020AD5900082001002020
:10513C0041680B4B10B50400994201D000F030FCD3
:10514C00A168084B994202D0200000F029FCE168CC
:10515C00054B994202D0200000F022FC10BDC04645
:10516C00AC050020140600207C06002010B5094B6D
:10517C00094A04211A6009480022FFF795FF012211
:10518C0009210748FFF790FF022212210548FFF77B
:10519C008BFF10BDE406002021510008AC05002057
:1051AC00140600207C06002010B5024800F07FF9A0
:1051BC0010BDC046ED06002010B5024800F078F98D
:1051CC0010BDC046ED06002010B50400FFF7ECFF43
:1051DC00236A002B02D0FFF7EFFF10BD044B2362B4
:1051EC00044B1B68002BF6D1FFF7C0FFF3E7C0465A
:1051FC003D510008E4060020F7B51400002600908D
:10520C000191A5686768013F04D52468002CF8D18A
:10521C003000FEBDAB89012B08D90E22AB5E0133E9
:10522C0004D029000098019B984706436835EAE7AB
:10523C0070B50C000E25495F00F0D4F8002803DB94
:10524C00636D1B18636570BDA389024A1340A3816B
:10525C00F9E7C046FFEFFFFFF8B51F008B8905008B
:10526C000C001600DB0505D50E23C95E00220223B7
:10527C0000F0A4F8A389054A28001340A38132004A
:10528C000E23E15E3B0000F0D3F8F8BDFFEFFFFF0B
:10529C0070B50C000E25495F00F090F80C22A35E4F
:1052AC00421C03D1044A1340A38170BD80225201D9
:1052BC001343A3816065F8E7FFEFFFFF10B50E23E2
:1052CC00C95E00F069F810BD03008218934200D14A
:1052DC00704719700133F9E7164B70B51E6804005E
:1052EC00726C0D00002A1ED15020FFF781FD021EAA
:1052FC00706404D15B21104B104800F0E3F80023DC
:10530C00036043608360C3600361436183618362B4
:10531C00C362036343638363C3630364436483644F
:10532C00C3640377436229000123200000F008F8CE
:10533C0070BDC0461C0100206E610008856100082C
:10534C00F0B5041E02D11468002C09D020000E0008
:10535C00057801343778002F04D1002D0DD115605C
:10536C00002006E00136BD42F4D1002BEED11460D2
:10537C000370F0BD0133002D03D126000B003778EC
:10538C0001341D78AF42F5D1002319009F4201D0A2
:10539C00230031701360ECE7002370B5064D040058
:1053AC0008002B60FFF768F9431C03D12B68002B16
:1053BC0000D0236070BDC046E806002070B5040024
:1053CC00080011001A000023054D2B60FFF75EF951
:1053DC00431C03D12B68002B00D0236070BDC0464A
:1053EC00E806002070B50400080011001A00002324
:1053FC00054D2B60FFF74CF9431C03D12B68002B98
:10540C0000D0236070BDC046E8060020002370B5B4
:10541C00064D040008002B60FFF710F9431C03D164
:10542C002B68002B00D0236070BDC046E80600201E
:10543C0070B50400080011001A000023054D2B6004
:10544C00FFF7A6FC431C03D12B68002B00D0236074
:10545C0070BDC046E8060020014B18687047C04676
:10546C001C01002070B500260C4C0D4D641BA410C3
:10547C00A64209D1002600F067FE0A4C0A4D641BB7
:10548C00A410A64205D170BDB300EB589847013665
:10549C00EEE7B300EB5898470136F2E7506A000884
:1054AC00506A0008686A0008506A00087047704724
:1054BC007047002310B59A4200D110BDCC5CC45487
:1054CC000133F8E77FB514001A00094B05001B687F
:1054DC000E00D868074B002C01D1074B1C00074964
:1054EC00019302942B00009600F086FA00F09FFACC
:1054FC001C010020096200084462000816620008C2
:10550C0070B505000C1E10D0043C2368002B00DA8B
:10551C00E4182800FFF722FD1D4A1368002B05D163
:10552C00636014602800FFF721FD70BDA34208D909
:10553C00206821188B42F3D119685B680918216027
:10554C00EEE71A005B68002B01D0A342F9D9116871
:10555C005018A0420BD120680918501811608342D2
:10556C00E0D118685B68411811605360DAE7A0421B
:10557C0002D90C232B60D5E7206821188B4203D16C
:10558C0019685B680918216063605460CAE7C046FB
:10559C00A8050020F7B5160001938A680B690C006A
:1055AC000090934200DA13002200336043321278E9
:1055BC00002A01D00133336023689B0602D533687F
:1055CC00023333602268062315001D401A4227D08F
:1055DC00230043331B785A1E93412268920630D421
:1055EC00220001990098089D4332A847013025D02C
:1055FC000622236800251340042B05D13368E56887
:10560C00ED1AEB43DB171D40A3682269934201DDC1
:10561C009B1AED180026B54220D1002010E0013570
:10562C00E36832689B1AAB42D2DD22000123019958
:10563C000098089F1932B8470130F0D10120404240
:10564C00FEBD3020E1184331087021005A1C453151
:10565C000978A218433202331170C1E722000123EA
:10566C0001990098089F1A32B8470130E6D00136EC
:10567C00D1E70000F0B58BB006920A0043320793D5
:10568C00059003920A7E0C00109B782A09D8622A96
:10569C000BD8002A00D1BAE07A490491582A00D1DB
:1056AC008EE0250042352A7022E010006338152860
:1056BC00F7D8FAF707FD16001F00F6FFF6FFF6FF06
:1056CC00F6FF1F00F6FFF6FFF6FFF6FF9F00360011
:1056DC007E00F6FFF6FFB000F6FF3600F6FFF6FF91
:1056EC00820025001A684235111D196013682B7051
:1056FC0001239EE018680968021D0D060BD506688B
:10570C001A60002E03DA2D23039A764213705D4B38
:10571C000A27049318E006681A604906F1D536B2D8
:10572C00EFE70868196840C9050602D4400600D5A1
:10573C00B6B21960534B0A2704936F2A00D1023F6B
:10574C002300002243331A706368A360002B06DB2E
:10575C0004212268039D8A43226033430CD0039DAD
:10576C0030003900FAF73EFD049B013D5B5C2B7069
:10577C00330006009F42F3D9082F09D12368DB07B9
:10578C0006D5626823699A4202DC3023013D2B70F6
:10579C00039B5B1B2361079B210000930598069BD1
:1057AC0009AAFFF7F7FE013048D1012040420BB0A7
:1057BC00F0BD202209680A43226078223249049104
:1057CC00210045310A701968226840C9100602D4BC
:1057DC00500600D5B6B21960D30702D52023134367
:1057EC002360002E01D01027AAE7202223689343C0
:1057FC002360F8E71A680D68101D49691860136872
:10580C002E0601D5196002E06D06FBD51980002328
:10581C00039D2361BFE71A68111D196015680021EB
:10582C002800626800F0F8F8002801D0401B606086
:10583C00636823610023039A1370ACE72A00236981
:10584C0006990598079DA8470130AED023689B07A1
:10585C0015D4099BE0689842A9DA1800A7E7220042
:10586C00012306990598079E1932B04701309CD048
:10587C000135E368099A9B1AAB42F0DCE9E7002595
:10588C00F7E7C0464562000856620008F7B50C22DF
:10589C008B5E05000C001A075AD44A68002A02DCF9
:1058AC000A6C002A4FDDE76A002F4CD000228021C1
:1058BC002E682A601A0049010A400B4234D0626DEE
:1058CC00A3895B0706D56368D21A636B002B01D0E2
:1058DC00236CD21A00232800E76A216AB8470C23EC
:1058EC00E25E431C06D129681D292ED82B4BCB40D8
:1058FC00DB072AD50023636023692360D20405D516
:10590C00431C02D12B68002B00D16065616B2E60AB
:10591C00002918D023004433994202D02800FFF705
:10592C00EFFD002363630EE001232800216AB847D2
:10593C000200431CC4D12B68002BC1D01D2B01D0FD
:10594C00162B1DD12E60002021E0402313431BE0B9
:10595C000E69002EF7D00F680E60BA1B0192002260
:10596C009B0700D14A69A260019B002BEBDDA36A67
:10597C0032001F002800019B216AB847002807DC71
:10598C004023A28913431BB20120A3814042FEBDD8
:10599C00019B36181B1A0193E6E7C0460100402014
:1059AC000B6970B505000C00002B02D100252800F6
:1059BC0070BD002804D0036A002B01D1FFF704FC52
:1059CC000C22A35E002BF1D0626ED20704D49B058F
:1059DC0002D4A06DFFF76BFD28002100FFF756FFE6
:1059EC00636E0500DB07E2D4A3899B05DFD4A06DB1
:1059FC00FFF75EFDDBE700000EB417B5054C05ABF9
:105A0C0004CB01002068019300F040F81EBC08BCD8
:105A1C0003B018471C010020C9B28218904201D172
:105A2C000020704703788B42FBD00130F6E706204C
:105A3C0010B500F011FA0120FEF72CFE936810B59A
:105A4C00013B9360002B04DA9469A34207DB0A291B
:105A5C0005D01368581C10601970080010BD00F0B8
:105A6C0035F90100F9E7F8B506000F001400D51858
:105A7C00AC4201D1002007E021783A003000FFF75A
:105A8C00DDFF0134431CF3D1F8BD0000F0B59FB02D
:105A9C000D0016001C000290002804D0036A002B95
:105AAC0001D1FFF791FB6B6EDB0705D4AB899B052E
:105ABC0002D4A86DFFF7FBFCAB891B0702D52B6941
:105ACC00002B13D12900029800F042F900280DD0C8
